{
  "_format": "hh-sol-artifact-1",
  "contractName": "Medicare",
  "sourceName": "contracts/Medicare.sol",
  "address": "0x1Ab0578dC743dd1f5C899e43054D948227D6DEC1",
  "abi": [
    {
      "inputs": [
        {
          "internalType": "string",
          "name": "name",
          "type": "string"
        },
        {
          "internalType": "string",
          "name": "symbol",
          "type": "string"
        }
      ],
      "stateMutability": "nonpayable",
      "type": "constructor"
    },
    {
      "anonymous": false,
      "inputs": [
        {
          "indexed": true,
          "internalType": "address",
          "name": "owner",
          "type": "address"
        },
        {
          "indexed": true,
          "internalType": "address",
          "name": "approved",
          "type": "address"
        },
        {
          "indexed": true,
          "internalType": "uint256",
          "name": "tokenId",
          "type": "uint256"
        }
      ],
      "name": "Approval",
      "type": "event"
    },
    {
      "anonymous": false,
      "inputs": [
        {
          "indexed": true,
          "internalType": "address",
          "name": "owner",
          "type": "address"
        },
        {
          "indexed": true,
          "internalType": "address",
          "name": "operator",
          "type": "address"
        },
        {
          "indexed": false,
          "internalType": "bool",
          "name": "approved",
          "type": "bool"
        }
      ],
      "name": "ApprovalForAll",
      "type": "event"
    },
    {
      "anonymous": false,
      "inputs": [
        {
          "indexed": true,
          "internalType": "address",
          "name": "from",
          "type": "address"
        },
        {
          "indexed": true,
          "internalType": "address",
          "name": "to",
          "type": "address"
        },
        {
          "indexed": true,
          "internalType": "uint256",
          "name": "tokenId",
          "type": "uint256"
        }
      ],
      "name": "Transfer",
      "type": "event"
    },
    {
      "inputs": [
        {
          "internalType": "address",
          "name": "to",
          "type": "address"
        },
        {
          "internalType": "uint256",
          "name": "tokenId",
          "type": "uint256"
        }
      ],
      "name": "approve",
      "outputs": [],
      "stateMutability": "nonpayable",
      "type": "function"
    },
    {
      "inputs": [
        {
          "internalType": "address",
          "name": "owner",
          "type": "address"
        }
      ],
      "name": "balanceOf",
      "outputs": [
        {
          "internalType": "uint256",
          "name": "",
          "type": "uint256"
        }
      ],
      "stateMutability": "view",
      "type": "function"
    },
    {
      "inputs": [
        {
          "internalType": "uint256",
          "name": "tokenId",
          "type": "uint256"
        }
      ],
      "name": "burn",
      "outputs": [],
      "stateMutability": "nonpayable",
      "type": "function"
    },
    {
      "inputs": [
        {
          "internalType": "uint256",
          "name": "tokenId",
          "type": "uint256"
        }
      ],
      "name": "getApproved",
      "outputs": [
        {
          "internalType": "address",
          "name": "",
          "type": "address"
        }
      ],
      "stateMutability": "view",
      "type": "function"
    },
    {
      "inputs": [
        {
          "internalType": "uint256",
          "name": "tokenId",
          "type": "uint256"
        }
      ],
      "name": "getTokenURI",
      "outputs": [
        {
          "internalType": "string",
          "name": "",
          "type": "string"
        }
      ],
      "stateMutability": "view",
      "type": "function"
    },
    {
      "inputs": [
        {
          "internalType": "address",
          "name": "owner",
          "type": "address"
        },
        {
          "internalType": "address",
          "name": "operator",
          "type": "address"
        }
      ],
      "name": "isApprovedForAll",
      "outputs": [
        {
          "internalType": "bool",
          "name": "",
          "type": "bool"
        }
      ],
      "stateMutability": "view",
      "type": "function"
    },
    {
      "inputs": [],
      "name": "name",
      "outputs": [
        {
          "internalType": "string",
          "name": "",
          "type": "string"
        }
      ],
      "stateMutability": "view",
      "type": "function"
    },
    {
      "inputs": [
        {
          "internalType": "uint256",
          "name": "tokenId",
          "type": "uint256"
        }
      ],
      "name": "ownerOf",
      "outputs": [
        {
          "internalType": "address",
          "name": "",
          "type": "address"
        }
      ],
      "stateMutability": "view",
      "type": "function"
    },
    {
      "inputs": [
        {
          "internalType": "address",
          "name": "to",
          "type": "address"
        },
        {
          "internalType": "string",
          "name": "uri",
          "type": "string"
        }
      ],
      "name": "safeMint",
      "outputs": [],
      "stateMutability": "nonpayable",
      "type": "function"
    },
    {
      "inputs": [
        {
          "internalType": "address",
          "name": "from",
          "type": "address"
        },
        {
          "internalType": "address",
          "name": "to",
          "type": "address"
        },
        {
          "internalType": "uint256",
          "name": "tokenId",
          "type": "uint256"
        }
      ],
      "name": "safeTransferFrom",
      "outputs": [],
      "stateMutability": "nonpayable",
      "type": "function"
    },
    {
      "inputs": [
        {
          "internalType": "address",
          "name": "from",
          "type": "address"
        },
        {
          "internalType": "address",
          "name": "to",
          "type": "address"
        },
        {
          "internalType": "uint256",
          "name": "tokenId",
          "type": "uint256"
        },
        {
          "internalType": "bytes",
          "name": "data",
          "type": "bytes"
        }
      ],
      "name": "safeTransferFrom",
      "outputs": [],
      "stateMutability": "nonpayable",
      "type": "function"
    },
    {
      "inputs": [
        {
          "internalType": "address",
          "name": "operator",
          "type": "address"
        },
        {
          "internalType": "bool",
          "name": "approved",
          "type": "bool"
        }
      ],
      "name": "setApprovalForAll",
      "outputs": [],
      "stateMutability": "nonpayable",
      "type": "function"
    },
    {
      "inputs": [
        {
          "internalType": "bytes4",
          "name": "interfaceId",
          "type": "bytes4"
        }
      ],
      "name": "supportsInterface",
      "outputs": [
        {
          "internalType": "bool",
          "name": "",
          "type": "bool"
        }
      ],
      "stateMutability": "view",
      "type": "function"
    },
    {
      "inputs": [],
      "name": "symbol",
      "outputs": [
        {
          "internalType": "string",
          "name": "",
          "type": "string"
        }
      ],
      "stateMutability": "view",
      "type": "function"
    },
    {
      "inputs": [
        {
          "internalType": "uint256",
          "name": "index",
          "type": "uint256"
        }
      ],
      "name": "tokenByIndex",
      "outputs": [
        {
          "internalType": "uint256",
          "name": "",
          "type": "uint256"
        }
      ],
      "stateMutability": "view",
      "type": "function"
    },
    {
      "inputs": [
        {
          "internalType": "address",
          "name": "owner",
          "type": "address"
        },
        {
          "internalType": "uint256",
          "name": "index",
          "type": "uint256"
        }
      ],
      "name": "tokenOfOwnerByIndex",
      "outputs": [
        {
          "internalType": "uint256",
          "name": "",
          "type": "uint256"
        }
      ],
      "stateMutability": "view",
      "type": "function"
    },
    {
      "inputs": [
        {
          "internalType": "uint256",
          "name": "tokenId",
          "type": "uint256"
        }
      ],
      "name": "tokenURI",
      "outputs": [
        {
          "internalType": "string",
          "name": "",
          "type": "string"
        }
      ],
      "stateMutability": "view",
      "type": "function"
    },
    {
      "inputs": [],
      "name": "totalSupply",
      "outputs": [
        {
          "internalType": "uint256",
          "name": "",
          "type": "uint256"
        }
      ],
      "stateMutability": "view",
      "type": "function"
    },
    {
      "inputs": [
        {
          "internalType": "address",
          "name": "to",
          "type": "address"
        },
        {
          "internalType": "uint256",
          "name": "tokenId",
          "type": "uint256"
        }
      ],
      "name": "transfer",
      "outputs": [],
      "stateMutability": "nonpayable",
      "type": "function"
    },
    {
      "inputs": [
        {
          "internalType": "address",
          "name": "from",
          "type": "address"
        },
        {
          "internalType": "address",
          "name": "to",
          "type": "address"
        },
        {
          "internalType": "uint256",
          "name": "tokenId",
          "type": "uint256"
        }
      ],
      "name": "transferFrom",
      "outputs": [],
      "stateMutability": "nonpayable",
      "type": "function"
    }
  ],
  "bytecode": "0x60806040523480156200001157600080fd5b5060405162003cc438038062003cc48339818101604052810190620000379190620001fa565b818181600090816200004a9190620004ca565b5080600190816200005c9190620004ca565b5050505050620005b1565b6000604051905090565b600080fd5b600080fd5b600080fd5b600080fd5b6000601f19601f8301169050919050565b7f4e487b7100000000000000000000000000000000000000000000000000000000600052604160045260246000fd5b620000d08262000085565b810181811067ffffffffffffffff82111715620000f257620000f162000096565b5b80604052505050565b60006200010762000067565b9050620001158282620000c5565b919050565b600067ffffffffffffffff82111562000138576200013762000096565b5b620001438262000085565b9050602081019050919050565b60005b838110156200017057808201518184015260208101905062000153565b60008484015250505050565b6000620001936200018d846200011a565b620000fb565b905082815260208101848484011115620001b257620001b162000080565b5b620001bf84828562000150565b509392505050565b600082601f830112620001df57620001de6200007b565b5b8151620001f18482602086016200017c565b91505092915050565b6000806040838503121562000214576200021362000071565b5b600083015167ffffffffffffffff81111562000235576200023462000076565b5b6200024385828601620001c7565b925050602083015167ffffffffffffffff81111562000267576200026662000076565b5b6200027585828601620001c7565b9150509250929050565b600081519050919050565b7f4e487b7100000000000000000000000000000000000000000000000000000000600052602260045260246000fd5b60006002820490506001821680620002d257607f821691505b602082108103620002e857620002e76200028a565b5b50919050565b60008190508160005260206000209050919050565b60006020601f8301049050919050565b600082821b905092915050565b600060088302620003527fffffffffffffffffffffffffffffffffffffffffffffffffffffffffffffffff8262000313565b6200035e868362000313565b95508019841693508086168417925050509392505050565b6000819050919050565b6000819050919050565b6000620003ab620003a56200039f8462000376565b62000380565b62000376565b9050919050565b6000819050919050565b620003c7836200038a565b620003df620003d682620003b2565b84845462000320565b825550505050565b600090565b620003f6620003e7565b62000403818484620003bc565b505050565b5b818110156200042b576200041f600082620003ec565b60018101905062000409565b5050565b601f8211156200047a576200044481620002ee565b6200044f8462000303565b810160208510156200045f578190505b620004776200046e8562000303565b83018262000408565b50505b505050565b600082821c905092915050565b60006200049f600019846008026200047f565b1980831691505092915050565b6000620004ba83836200048c565b9150826002028217905092915050565b620004d5826200027f565b67ffffffffffffffff811115620004f157620004f062000096565b5b620004fd8254620002b9565b6200050a8282856200042f565b600060209050601f8311600181146200054257600084156200052d578287015190505b620005398582620004ac565b865550620005a9565b601f1984166200055286620002ee565b60005b828110156200057c5784890151825560018201915060208501945060208101905062000555565b868310156200059c578489015162000598601f8916826200048c565b8355505b6001600288020188555050505b505050505050565b61370380620005c16000396000f3fe608060405234801561001057600080fd5b506004361061012c5760003560e01c80634f6ccce7116100ad578063a9059cbb11610071578063a9059cbb14610367578063b88d4fde14610383578063c87b56dd1461039f578063d204c45e146103cf578063e985e9c5146103eb5761012c565b80634f6ccce71461029d5780636352211e146102cd57806370a08231146102fd57806395d89b411461032d578063a22cb4651461034b5761012c565b806323b872dd116100f457806323b872dd146101e95780632f745c59146102055780633bb3a24d1461023557806342842e0e1461026557806342966c68146102815761012c565b806301ffc9a71461013157806306fdde0314610161578063081812fc1461017f578063095ea7b3146101af57806318160ddd146101cb575b600080fd5b61014b6004803603810190610146919061237b565b61041b565b60405161015891906123c3565b60405180910390f35b61016961042d565b604051610176919061246e565b60405180910390f35b610199600480360381019061019491906124c6565b6104bf565b6040516101a69190612534565b60405180910390f35b6101c960048036038101906101c4919061257b565b610505565b005b6101d361061c565b6040516101e091906125ca565b60405180910390f35b61020360048036038101906101fe91906125e5565b610629565b005b61021f600480360381019061021a919061257b565b610689565b60405161022c91906125ca565b60405180910390f35b61024f600480360381019061024a91906124c6565b61072e565b60405161025c919061246e565b60405180910390f35b61027f600480360381019061027a91906125e5565b610740565b005b61029b600480360381019061029691906124c6565b610760565b005b6102b760048036038101906102b291906124c6565b6107bc565b6040516102c491906125ca565b60405180910390f35b6102e760048036038101906102e291906124c6565b61082d565b6040516102f49190612534565b60405180910390f35b61031760048036038101906103129190612638565b6108b3565b60405161032491906125ca565b60405180910390f35b61033561096a565b604051610342919061246e565b60405180910390f35b61036560048036038101906103609190612691565b6109fc565b005b610381600480360381019061037c919061257b565b610a12565b005b61039d60048036038101906103989190612806565b610a21565b005b6103b960048036038101906103b491906124c6565b610a83565b6040516103c6919061246e565b60405180910390f35b6103e960048036038101906103e4919061292a565b610a95565b005b61040560048036038101906104009190612986565b610ac6565b60405161041291906123c3565b60405180910390f35b600061042682610b5a565b9050919050565b60606000805461043c906129f5565b80601f0160208091040260200160405190810160405280929190818152602001828054610468906129f5565b80156104b55780601f1061048a576101008083540402835291602001916104b5565b820191906000526020600020905b81548152906001019060200180831161049857829003601f168201915b5050505050905090565b60006104ca82610bd4565b6004600083815260200190815260200160002060009054906101000a900473ffffffffffffffffffffffffffffffffffffffff169050919050565b60006105108261082d565b90508073ffffffffffffffffffffffffffffffffffffffff168373ffffffffffffffffffffffffffffffffffffffff1603610580576040517f08c379a000000000000000000000000000000000000000000000000000000000815260040161057790612a98565b60405180910390fd5b8073ffffffffffffffffffffffffffffffffffffffff1661059f610c1f565b73ffffffffffffffffffffffffffffffffffffffff1614806105ce57506105cd816105c8610c1f565b610ac6565b5b61060d576040517f08c379a000000000000000000000000000000000000000000000000000000000815260040161060490612b2a565b60405180910390fd5b6106178383610c27565b505050565b6000600880549050905090565b61063a610634610c1f565b82610ce0565b610679576040517f08c379a000000000000000000000000000000000000000000000000000000000815260040161067090612bbc565b60405180910390fd5b610684838383610d75565b505050565b6000610694836108b3565b82106106d5576040517f08c379a00000000000000000000000000000000000000000000000000000000081526004016106cc90612c4e565b60405180910390fd5b600660008473ffffffffffffffffffffffffffffffffffffffff1673ffffffffffffffffffffffffffffffffffffffff168152602001908152602001600020600083815260200190815260200160002054905092915050565b606061073982610a83565b9050919050565b61075b83838360405180602001604052806000815250610a21565b505050565b61077161076b610c1f565b82610ce0565b6107b0576040517f08c379a00000000000000000000000000000000000000000000000000000000081526004016107a790612bbc565b60405180910390fd5b6107b98161106e565b50565b60006107c661061c565b8210610807576040517f08c379a00000000000000000000000000000000000000000000000000000000081526004016107fe90612ce0565b60405180910390fd5b6008828154811061081b5761081a612d00565b5b90600052602060002001549050919050565b6000806108398361107a565b9050600073ffffffffffffffffffffffffffffffffffffffff168173ffffffffffffffffffffffffffffffffffffffff16036108aa576040517f08c379a00000000000000000000000000000000000000000000000000000000081526004016108a190612d7b565b60405180910390fd5b80915050919050565b60008073ffffffffffffffffffffffffffffffffffffffff168273ffffffffffffffffffffffffffffffffffffffff1603610923576040517f08c379a000000000000000000000000000000000000000000000000000000000815260040161091a90612e0d565b60405180910390fd5b600360008373ffffffffffffffffffffffffffffffffffffffff1673ffffffffffffffffffffffffffffffffffffffff168152602001908152602001600020549050919050565b606060018054610979906129f5565b80601f01602080910402602001604051908101604052809291908181526020018280546109a5906129f5565b80156109f25780601f106109c7576101008083540402835291602001916109f2565b820191906000526020600020905b8154815290600101906020018083116109d557829003601f168201915b5050505050905090565b610a0e610a07610c1f565b83836110b7565b5050565b610a1d338383610740565b5050565b610a32610a2c610c1f565b83610ce0565b610a71576040517f08c379a0000000000000000000000000000000000000000000000000000000008152600401610a6890612bbc565b60405180910390fd5b610a7d84848484611223565b50505050565b6060610a8e8261127f565b9050919050565b6000610aa1600b611391565b9050610aad600b61139f565b610ab783826113b5565b610ac181836113d3565b505050565b6000600560008473ffffffffffffffffffffffffffffffffffffffff1673ffffffffffffffffffffffffffffffffffffffff16815260200190815260200160002060008373ffffffffffffffffffffffffffffffffffffffff1673ffffffffffffffffffffffffffffffffffffffff16815260200190815260200160002060009054906101000a900460ff16905092915050565b60007f780e9d63000000000000000000000000000000000000000000000000000000007bffffffffffffffffffffffffffffffffffffffffffffffffffffffff1916827bffffffffffffffffffffffffffffffffffffffffffffffffffffffff19161480610bcd5750610bcc82611440565b5b9050919050565b610bdd81611522565b610c1c576040517f08c379a0000000000000000000000000000000000000000000000000000000008152600401610c1390612d7b565b60405180910390fd5b50565b600033905090565b816004600083815260200190815260200160002060006101000a81548173ffffffffffffffffffffffffffffffffffffffff021916908373ffffffffffffffffffffffffffffffffffffffff160217905550808273ffffffffffffffffffffffffffffffffffffffff16610c9a8361082d565b73ffffffffffffffffffffffffffffffffffffffff167f8c5be1e5ebec7d5bd14f71427d1e84f3dd0314c0f7b2291e5b200ac8c7c3b92560405160405180910390a45050565b600080610cec8361082d565b90508073ffffffffffffffffffffffffffffffffffffffff168473ffffffffffffffffffffffffffffffffffffffff161480610d2e5750610d2d8185610ac6565b5b80610d6c57508373ffffffffffffffffffffffffffffffffffffffff16610d54846104bf565b73ffffffffffffffffffffffffffffffffffffffff16145b91505092915050565b8273ffffffffffffffffffffffffffffffffffffffff16610d958261082d565b73ffffffffffffffffffffffffffffffffffffffff1614610deb576040517f08c379a0000000000000000000000000000000000000000000000000000000008152600401610de290612e9f565b60405180910390fd5b600073ffffffffffffffffffffffffffffffffffffffff168273ffffffffffffffffffffffffffffffffffffffff1603610e5a576040517f08c379a0000000000000000000000000000000000000000000000000000000008152600401610e5190612f31565b60405180910390fd5b610e678383836001611563565b8273ffffffffffffffffffffffffffffffffffffffff16610e878261082d565b73ffffffffffffffffffffffffffffffffffffffff1614610edd576040517f08c379a0000000000000000000000000000000000000000000000000000000008152600401610ed490612e9f565b60405180910390fd5b6004600082815260200190815260200160002060006101000a81549073ffffffffffffffffffffffffffffffffffffffff02191690556001600360008573ffffffffffffffffffffffffffffffffffffffff1673ffffffffffffffffffffffffffffffffffffffff168152602001908152602001600020600082825403925050819055506001600360008473ffffffffffffffffffffffffffffffffffffffff1673ffffffffffffffffffffffffffffffffffffffff16815260200190815260200160002060008282540192505081905550816002600083815260200190815260200160002060006101000a81548173ffffffffffffffffffffffffffffffffffffffff021916908373ffffffffffffffffffffffffffffffffffffffff160217905550808273ffffffffffffffffffffffffffffffffffffffff168473ffffffffffffffffffffffffffffffffffffffff167fddf252ad1be2c89b69c2b068fc378daa952ba7f163c4a11628f55a4df523b3ef60405160405180910390a46110698383836001611575565b505050565b6110778161157b565b50565b60006002600083815260200190815260200160002060009054906101000a900473ffffffffffffffffffffffffffffffffffffffff169050919050565b8173ffffffffffffffffffffffffffffffffffffffff168373ffffffffffffffffffffffffffffffffffffffff1603611125576040517f08c379a000000000000000000000000000000000000000000000000000000000815260040161111c90612f9d565b60405180910390fd5b80600560008573ffffffffffffffffffffffffffffffffffffffff1673ffffffffffffffffffffffffffffffffffffffff16815260200190815260200160002060008473ffffffffffffffffffffffffffffffffffffffff1673ffffffffffffffffffffffffffffffffffffffff16815260200190815260200160002060006101000a81548160ff0219169083151502179055508173ffffffffffffffffffffffffffffffffffffffff168373ffffffffffffffffffffffffffffffffffffffff167f17307eab39ab6107e8899845ad3d59bd9653f200f220920489ca2b5937696c318360405161121691906123c3565b60405180910390a3505050565b61122e848484610d75565b61123a848484846115ce565b611279576040517f08c379a00000000000000000000000000000000000000000000000000000000081526004016112709061302f565b60405180910390fd5b50505050565b606061128a82610bd4565b6000600a600084815260200190815260200160002080546112aa906129f5565b80601f01602080910402602001604051908101604052809291908181526020018280546112d6906129f5565b80156113235780601f106112f857610100808354040283529160200191611323565b820191906000526020600020905b81548152906001019060200180831161130657829003601f168201915b505050505090506000611334611755565b9050600081510361134957819250505061138c565b60008251111561137e57808260405160200161136692919061308b565b6040516020818303038152906040529250505061138c565b6113878461176c565b925050505b919050565b600081600001549050919050565b6001816000016000828254019250508190555050565b6113cf8282604051806020016040528060008152506117d4565b5050565b6113dc82611522565b61141b576040517f08c379a000000000000000000000000000000000000000000000000000000000815260040161141290613121565b60405180910390fd5b80600a6000848152602001908152602001600020908161143b91906132ed565b505050565b60007f80ac58cd000000000000000000000000000000000000000000000000000000007bffffffffffffffffffffffffffffffffffffffffffffffffffffffff1916827bffffffffffffffffffffffffffffffffffffffffffffffffffffffff1916148061150b57507f5b5e139f000000000000000000000000000000000000000000000000000000007bffffffffffffffffffffffffffffffffffffffffffffffffffffffff1916827bffffffffffffffffffffffffffffffffffffffffffffffffffffffff1916145b8061151b575061151a8261182f565b5b9050919050565b60008073ffffffffffffffffffffffffffffffffffffffff166115448361107a565b73ffffffffffffffffffffffffffffffffffffffff1614159050919050565b61156f84848484611899565b50505050565b50505050565b611584816119f7565b6000600a600083815260200190815260200160002080546115a4906129f5565b9050146115cb57600a600082815260200190815260200160002060006115ca91906122b2565b5b50565b60006115ef8473ffffffffffffffffffffffffffffffffffffffff16611b45565b15611748578373ffffffffffffffffffffffffffffffffffffffff1663150b7a02611618610c1f565b8786866040518563ffffffff1660e01b815260040161163a9493929190613414565b6020604051808303816000875af192505050801561167657506040513d601f19601f820116820180604052508101906116739190613475565b60015b6116f8573d80600081146116a6576040519150601f19603f3d011682016040523d82523d6000602084013e6116ab565b606091505b5060008151036116f0576040517f08c379a00000000000000000000000000000000000000000000000000000000081526004016116e79061302f565b60405180910390fd5b805181602001fd5b63150b7a0260e01b7bffffffffffffffffffffffffffffffffffffffffffffffffffffffff1916817bffffffffffffffffffffffffffffffffffffffffffffffffffffffff19161491505061174d565b600190505b949350505050565b606060405180602001604052806000815250905090565b606061177782610bd4565b6000611781611755565b905060008151116117a157604051806020016040528060008152506117cc565b806117ab84611b68565b6040516020016117bc92919061308b565b6040516020818303038152906040525b915050919050565b6117de8383611c36565b6117eb60008484846115ce565b61182a576040517f08c379a00000000000000000000000000000000000000000000000000000000081526004016118219061302f565b60405180910390fd5b505050565b60007f01ffc9a7000000000000000000000000000000000000000000000000000000007bffffffffffffffffffffffffffffffffffffffffffffffffffffffff1916827bffffffffffffffffffffffffffffffffffffffffffffffffffffffff1916149050919050565b6118a584848484611e53565b60018111156118e9576040517f08c379a00000000000000000000000000000000000000000000000000000000081526004016118e090613514565b60405180910390fd5b6000829050600073ffffffffffffffffffffffffffffffffffffffff168573ffffffffffffffffffffffffffffffffffffffff16036119305761192b81611e59565b61196f565b8373ffffffffffffffffffffffffffffffffffffffff168573ffffffffffffffffffffffffffffffffffffffff161461196e5761196d8582611ea2565b5b5b600073ffffffffffffffffffffffffffffffffffffffff168473ffffffffffffffffffffffffffffffffffffffff16036119b1576119ac8161200f565b6119f0565b8473ffffffffffffffffffffffffffffffffffffffff168473ffffffffffffffffffffffffffffffffffffffff16146119ef576119ee84826120e0565b5b5b5050505050565b6000611a028261082d565b9050611a12816000846001611563565b611a1b8261082d565b90506004600083815260200190815260200160002060006101000a81549073ffffffffffffffffffffffffffffffffffffffff02191690556001600360008373ffffffffffffffffffffffffffffffffffffffff1673ffffffffffffffffffffffffffffffffffffffff168152602001908152602001600020600082825403925050819055506002600083815260200190815260200160002060006101000a81549073ffffffffffffffffffffffffffffffffffffffff021916905581600073ffffffffffffffffffffffffffffffffffffffff168273ffffffffffffffffffffffffffffffffffffffff167fddf252ad1be2c89b69c2b068fc378daa952ba7f163c4a11628f55a4df523b3ef60405160405180910390a4611b41816000846001611575565b5050565b6000808273ffffffffffffffffffffffffffffffffffffffff163b119050919050565b606060006001611b778461215f565b01905060008167ffffffffffffffff811115611b9657611b956126db565b5b6040519080825280601f01601f191660200182016040528015611bc85781602001600182028036833780820191505090505b509050600082602001820190505b600115611c2b578080600190039150507f3031323334353637383961626364656600000000000000000000000000000000600a86061a8153600a8581611c1f57611c1e613534565b5b04945060008503611bd6575b819350505050919050565b600073ffffffffffffffffffffffffffffffffffffffff168273ffffffffffffffffffffffffffffffffffffffff1603611ca5576040517f08c379a0000000000000000000000000000000000000000000000000000000008152600401611c9c906135af565b60405180910390fd5b611cae81611522565b15611cee576040517f08c379a0000000000000000000000000000000000000000000000000000000008152600401611ce59061361b565b60405180910390fd5b611cfc600083836001611563565b611d0581611522565b15611d45576040517f08c379a0000000000000000000000000000000000000000000000000000000008152600401611d3c9061361b565b60405180910390fd5b6001600360008473ffffffffffffffffffffffffffffffffffffffff1673ffffffffffffffffffffffffffffffffffffffff16815260200190815260200160002060008282540192505081905550816002600083815260200190815260200160002060006101000a81548173ffffffffffffffffffffffffffffffffffffffff021916908373ffffffffffffffffffffffffffffffffffffffff160217905550808273ffffffffffffffffffffffffffffffffffffffff16600073ffffffffffffffffffffffffffffffffffffffff167fddf252ad1be2c89b69c2b068fc378daa952ba7f163c4a11628f55a4df523b3ef60405160405180910390a4611e4f600083836001611575565b5050565b50505050565b6008805490506009600083815260200190815260200160002081905550600881908060018154018082558091505060019003906000526020600020016000909190919091505550565b60006001611eaf846108b3565b611eb9919061366a565b9050600060076000848152602001908152602001600020549050818114611f9e576000600660008673ffffffffffffffffffffffffffffffffffffffff1673ffffffffffffffffffffffffffffffffffffffff168152602001908152602001600020600084815260200190815260200160002054905080600660008773ffffffffffffffffffffffffffffffffffffffff1673ffffffffffffffffffffffffffffffffffffffff168152602001908152602001600020600084815260200190815260200160002081905550816007600083815260200190815260200160002081905550505b6007600084815260200190815260200160002060009055600660008573ffffffffffffffffffffffffffffffffffffffff1673ffffffffffffffffffffffffffffffffffffffff16815260200190815260200160002060008381526020019081526020016000206000905550505050565b60006001600880549050612023919061366a565b905060006009600084815260200190815260200160002054905060006008838154811061205357612052612d00565b5b90600052602060002001549050806008838154811061207557612074612d00565b5b9060005260206000200181905550816009600083815260200190815260200160002081905550600960008581526020019081526020016000206000905560088054806120c4576120c361369e565b5b6001900381819060005260206000200160009055905550505050565b60006120eb836108b3565b905081600660008573ffffffffffffffffffffffffffffffffffffffff1673ffffffffffffffffffffffffffffffffffffffff168152602001908152602001600020600083815260200190815260200160002081905550806007600084815260200190815260200160002081905550505050565b600080600090507a184f03e93ff9f4daa797ed6e38ed64bf6a1f01000000000000000083106121bd577a184f03e93ff9f4daa797ed6e38ed64bf6a1f01000000000000000083816121b3576121b2613534565b5b0492506040810190505b6d04ee2d6d415b85acef810000000083106121fa576d04ee2d6d415b85acef810000000083816121f0576121ef613534565b5b0492506020810190505b662386f26fc10000831061222957662386f26fc10000838161221f5761221e613534565b5b0492506010810190505b6305f5e1008310612252576305f5e100838161224857612247613534565b5b0492506008810190505b612710831061227757612710838161226d5761226c613534565b5b0492506004810190505b6064831061229a57606483816122905761228f613534565b5b0492506002810190505b600a83106122a9576001810190505b80915050919050565b5080546122be906129f5565b6000825580601f106122d057506122ef565b601f0160209004906000526020600020908101906122ee91906122f2565b5b50565b5b8082111561230b5760008160009055506001016122f3565b5090565b6000604051905090565b600080fd5b600080fd5b60007fffffffff0000000000000000000000000000000000000000000000000000000082169050919050565b61235881612323565b811461236357600080fd5b50565b6000813590506123758161234f565b92915050565b60006020828403121561239157612390612319565b5b600061239f84828501612366565b91505092915050565b60008115159050919050565b6123bd816123a8565b82525050565b60006020820190506123d860008301846123b4565b92915050565b600081519050919050565b600082825260208201905092915050565b60005b838110156124185780820151818401526020810190506123fd565b60008484015250505050565b6000601f19601f8301169050919050565b6000612440826123de565b61244a81856123e9565b935061245a8185602086016123fa565b61246381612424565b840191505092915050565b600060208201905081810360008301526124888184612435565b905092915050565b6000819050919050565b6124a381612490565b81146124ae57600080fd5b50565b6000813590506124c08161249a565b92915050565b6000602082840312156124dc576124db612319565b5b60006124ea848285016124b1565b91505092915050565b600073ffffffffffffffffffffffffffffffffffffffff82169050919050565b600061251e826124f3565b9050919050565b61252e81612513565b82525050565b60006020820190506125496000830184612525565b92915050565b61255881612513565b811461256357600080fd5b50565b6000813590506125758161254f565b92915050565b6000806040838503121561259257612591612319565b5b60006125a085828601612566565b92505060206125b1858286016124b1565b9150509250929050565b6125c481612490565b82525050565b60006020820190506125df60008301846125bb565b92915050565b6000806000606084860312156125fe576125fd612319565b5b600061260c86828701612566565b935050602061261d86828701612566565b925050604061262e868287016124b1565b9150509250925092565b60006020828403121561264e5761264d612319565b5b600061265c84828501612566565b91505092915050565b61266e816123a8565b811461267957600080fd5b50565b60008135905061268b81612665565b92915050565b600080604083850312156126a8576126a7612319565b5b60006126b685828601612566565b92505060206126c78582860161267c565b9150509250929050565b600080fd5b600080fd5b7f4e487b7100000000000000000000000000000000000000000000000000000000600052604160045260246000fd5b61271382612424565b810181811067ffffffffffffffff82111715612732576127316126db565b5b80604052505050565b600061274561230f565b9050612751828261270a565b919050565b600067ffffffffffffffff821115612771576127706126db565b5b61277a82612424565b9050602081019050919050565b82818337600083830152505050565b60006127a96127a484612756565b61273b565b9050828152602081018484840111156127c5576127c46126d6565b5b6127d0848285612787565b509392505050565b600082601f8301126127ed576127ec6126d1565b5b81356127fd848260208601612796565b91505092915050565b600080600080608085870312156128205761281f612319565b5b600061282e87828801612566565b945050602061283f87828801612566565b9350506040612850878288016124b1565b925050606085013567ffffffffffffffff8111156128715761287061231e565b5b61287d878288016127d8565b91505092959194509250565b600067ffffffffffffffff8211156128a4576128a36126db565b5b6128ad82612424565b9050602081019050919050565b60006128cd6128c884612889565b61273b565b9050828152602081018484840111156128e9576128e86126d6565b5b6128f4848285612787565b509392505050565b600082601f830112612911576129106126d1565b5b81356129218482602086016128ba565b91505092915050565b6000806040838503121561294157612940612319565b5b600061294f85828601612566565b925050602083013567ffffffffffffffff8111156129705761296f61231e565b5b61297c858286016128fc565b9150509250929050565b6000806040838503121561299d5761299c612319565b5b60006129ab85828601612566565b92505060206129bc85828601612566565b9150509250929050565b7f4e487b7100000000000000000000000000000000000000000000000000000000600052602260045260246000fd5b60006002820490506001821680612a0d57607f821691505b602082108103612a2057612a1f6129c6565b5b50919050565b7f4552433732313a20617070726f76616c20746f2063757272656e74206f776e6560008201527f7200000000000000000000000000000000000000000000000000000000000000602082015250565b6000612a826021836123e9565b9150612a8d82612a26565b604082019050919050565b60006020820190508181036000830152612ab181612a75565b9050919050565b7f4552433732313a20617070726f76652063616c6c6572206973206e6f7420746f60008201527f6b656e206f776e6572206f7220617070726f76656420666f7220616c6c000000602082015250565b6000612b14603d836123e9565b9150612b1f82612ab8565b604082019050919050565b60006020820190508181036000830152612b4381612b07565b9050919050565b7f4552433732313a2063616c6c6572206973206e6f7420746f6b656e206f776e6560008201527f72206f7220617070726f76656400000000000000000000000000000000000000602082015250565b6000612ba6602d836123e9565b9150612bb182612b4a565b604082019050919050565b60006020820190508181036000830152612bd581612b99565b9050919050565b7f455243373231456e756d657261626c653a206f776e657220696e646578206f7560008201527f74206f6620626f756e6473000000000000000000000000000000000000000000602082015250565b6000612c38602b836123e9565b9150612c4382612bdc565b604082019050919050565b60006020820190508181036000830152612c6781612c2b565b9050919050565b7f455243373231456e756d657261626c653a20676c6f62616c20696e646578206f60008201527f7574206f6620626f756e64730000000000000000000000000000000000000000602082015250565b6000612cca602c836123e9565b9150612cd582612c6e565b604082019050919050565b60006020820190508181036000830152612cf981612cbd565b9050919050565b7f4e487b7100000000000000000000000000000000000000000000000000000000600052603260045260246000fd5b7f4552433732313a20696e76616c696420746f6b656e2049440000000000000000600082015250565b6000612d656018836123e9565b9150612d7082612d2f565b602082019050919050565b60006020820190508181036000830152612d9481612d58565b9050919050565b7f4552433732313a2061646472657373207a65726f206973206e6f74206120766160008201527f6c6964206f776e65720000000000000000000000000000000000000000000000602082015250565b6000612df76029836123e9565b9150612e0282612d9b565b604082019050919050565b60006020820190508181036000830152612e2681612dea565b9050919050565b7f4552433732313a207472616e736665722066726f6d20696e636f72726563742060008201527f6f776e6572000000000000000000000000000000000000000000000000000000602082015250565b6000612e896025836123e9565b9150612e9482612e2d565b604082019050919050565b60006020820190508181036000830152612eb881612e7c565b9050919050565b7f4552433732313a207472616e7366657220746f20746865207a65726f2061646460008201527f7265737300000000000000000000000000000000000000000000000000000000602082015250565b6000612f1b6024836123e9565b9150612f2682612ebf565b604082019050919050565b60006020820190508181036000830152612f4a81612f0e565b9050919050565b7f4552433732313a20617070726f766520746f2063616c6c657200000000000000600082015250565b6000612f876019836123e9565b9150612f9282612f51565b602082019050919050565b60006020820190508181036000830152612fb681612f7a565b9050919050565b7f4552433732313a207472616e7366657220746f206e6f6e20455243373231526560008201527f63656976657220696d706c656d656e7465720000000000000000000000000000602082015250565b60006130196032836123e9565b915061302482612fbd565b604082019050919050565b600060208201905081810360008301526130488161300c565b9050919050565b600081905092915050565b6000613065826123de565b61306f818561304f565b935061307f8185602086016123fa565b80840191505092915050565b6000613097828561305a565b91506130a3828461305a565b91508190509392505050565b7f45524337323155524953746f726167653a2055524920736574206f66206e6f6e60008201527f6578697374656e7420746f6b656e000000000000000000000000000000000000602082015250565b600061310b602e836123e9565b9150613116826130af565b604082019050919050565b6000602082019050818103600083015261313a816130fe565b9050919050565b60008190508160005260206000209050919050565b60006020601f8301049050919050565b600082821b905092915050565b6000600883026131a37fffffffffffffffffffffffffffffffffffffffffffffffffffffffffffffffff82613166565b6131ad8683613166565b95508019841693508086168417925050509392505050565b6000819050919050565b60006131ea6131e56131e084612490565b6131c5565b612490565b9050919050565b6000819050919050565b613204836131cf565b613218613210826131f1565b848454613173565b825550505050565b600090565b61322d613220565b6132388184846131fb565b505050565b5b8181101561325c57613251600082613225565b60018101905061323e565b5050565b601f8211156132a15761327281613141565b61327b84613156565b8101602085101561328a578190505b61329e61329685613156565b83018261323d565b50505b505050565b600082821c905092915050565b60006132c4600019846008026132a6565b1980831691505092915050565b60006132dd83836132b3565b9150826002028217905092915050565b6132f6826123de565b67ffffffffffffffff81111561330f5761330e6126db565b5b61331982546129f5565b613324828285613260565b600060209050601f8311600181146133575760008415613345578287015190505b61334f85826132d1565b8655506133b7565b601f19841661336586613141565b60005b8281101561338d57848901518255600182019150602085019450602081019050613368565b868310156133aa57848901516133a6601f8916826132b3565b8355505b6001600288020188555050505b505050505050565b600081519050919050565b600082825260208201905092915050565b60006133e6826133bf565b6133f081856133ca565b93506134008185602086016123fa565b61340981612424565b840191505092915050565b60006080820190506134296000830187612525565b6134366020830186612525565b61344360408301856125bb565b818103606083015261345581846133db565b905095945050505050565b60008151905061346f8161234f565b92915050565b60006020828403121561348b5761348a612319565b5b600061349984828501613460565b91505092915050565b7f455243373231456e756d657261626c653a20636f6e736563757469766520747260008201527f616e7366657273206e6f7420737570706f727465640000000000000000000000602082015250565b60006134fe6035836123e9565b9150613509826134a2565b604082019050919050565b6000602082019050818103600083015261352d816134f1565b9050919050565b7f4e487b7100000000000000000000000000000000000000000000000000000000600052601260045260246000fd5b7f4552433732313a206d696e7420746f20746865207a65726f2061646472657373600082015250565b60006135996020836123e9565b91506135a482613563565b602082019050919050565b600060208201905081810360008301526135c88161358c565b9050919050565b7f4552433732313a20746f6b656e20616c7265616479206d696e74656400000000600082015250565b6000613605601c836123e9565b9150613610826135cf565b602082019050919050565b60006020820190508181036000830152613634816135f8565b9050919050565b7f4e487b7100000000000000000000000000000000000000000000000000000000600052601160045260246000fd5b600061367582612490565b915061368083612490565b92508282039050818111156136985761369761363b565b5b92915050565b7f4e487b7100000000000000000000000000000000000000000000000000000000600052603160045260246000fdfea26469706673582212205135e2eafa0245b7d06ff31bf7350cda200c9022be7cdc1530df0ba05f6ca79464736f6c63430008120033",
  "linkReferences": {},
  "deployedLinkReferences": {}
}